{"abi":[{"type":"constructor","inputs":[],"stateMutability":"nonpayable"},{"type":"function","name":"CandidateList","inputs":[],"outputs":[{"name":"","type":"tuple[]","internalType":"struct Voting.Candidate[]","components":[{"name":"name","type":"string","internalType":"string"},{"name":"age","type":"uint256","internalType":"uint256"},{"name":"party","type":"string","internalType":"string"},{"name":"gender","type":"string","internalType":"string"},{"name":"candidate_id","type":"uint256","internalType":"uint256"},{"name":"candidate_address","type":"address","internalType":"address"},{"name":"voteCount","type":"uint256","internalType":"uint256"}]}],"stateMutability":"view"},{"type":"function","name":"DetermineWinner","inputs":[],"outputs":[],"stateMutability":"nonpayable"},{"type":"function","name":"VoterList","inputs":[],"outputs":[{"name":"","type":"tuple[]","internalType":"struct Voting.Voter[]","components":[{"name":"name","type":"string","internalType":"string"},{"name":"age","type":"uint256","internalType":"uint256"},{"name":"gender","type":"string","internalType":"string"},{"name":"voter_id","type":"uint256","internalType":"uint256"},{"name":"voter_address","type":"address","internalType":"address"},{"name":"hasVoted","type":"bool","internalType":"bool"},{"name":"VotedCandidateId","type":"uint256","internalType":"uint256"}]}],"stateMutability":"view"},{"type":"function","name":"candidateRegistration","inputs":[{"name":"_name","type":"string","internalType":"string"},{"name":"_age","type":"uint256","internalType":"uint256"},{"name":"_party","type":"string","internalType":"string"},{"name":"_gender","type":"string","internalType":"string"},{"name":"_candidateAddress","type":"address","internalType":"address"}],"outputs":[],"stateMutability":"nonpayable"},{"type":"function","name":"candidateVerification","inputs":[{"name":"_candidateAddress","type":"address","internalType":"address"}],"outputs":[{"name":"","type":"bool","internalType":"bool"}],"stateMutability":"view"},{"type":"function","name":"candidates","inputs":[{"name":"","type":"uint256","internalType":"uint256"}],"outputs":[{"name":"name","type":"string","internalType":"string"},{"name":"age","type":"uint256","internalType":"uint256"},{"name":"party","type":"string","internalType":"string"},{"name":"gender","type":"string","internalType":"string"},{"name":"candidate_id","type":"uint256","internalType":"uint256"},{"name":"candidate_address","type":"address","internalType":"address"},{"name":"voteCount","type":"uint256","internalType":"uint256"}],"stateMutability":"view"},{"type":"function","name":"castVote","inputs":[{"name":"_candidate_id","type":"uint256","internalType":"uint256"}],"outputs":[],"stateMutability":"nonpayable"},{"type":"function","name":"electionCommissioner","inputs":[],"outputs":[{"name":"","type":"address","internalType":"address"}],"stateMutability":"view"},{"type":"function","name":"emergencyStop","inputs":[],"outputs":[],"stateMutability":"nonpayable"},{"type":"function","name":"voteTime","inputs":[{"name":"_startTime","type":"uint256","internalType":"uint256"}],"outputs":[],"stateMutability":"nonpayable"},{"type":"function","name":"voterRegistration","inputs":[{"name":"_name","type":"string","internalType":"string"},{"name":"_age","type":"uint256","internalType":"uint256"},{"name":"_gender","type":"string","internalType":"string"}],"outputs":[],"stateMutability":"nonpayable"},{"type":"function","name":"voterVerification","inputs":[{"name":"_voterAddress","type":"address","internalType":"address"}],"outputs":[{"name":"","type":"bool","internalType":"bool"}],"stateMutability":"view"},{"type":"function","name":"voters","inputs":[{"name":"","type":"uint256","internalType":"uint256"}],"outputs":[{"name":"name","type":"string","internalType":"string"},{"name":"age","type":"uint256","internalType":"uint256"},{"name":"gender","type":"string","internalType":"string"},{"name":"voter_id","type":"uint256","internalType":"uint256"},{"name":"voter_address","type":"address","internalType":"address"},{"name":"hasVoted","type":"bool","internalType":"bool"},{"name":"VotedCandidateId","type":"uint256","internalType":"uint256"}],"stateMutability":"view"},{"type":"function","name":"votingStatus","inputs":[],"outputs":[{"name":"","type":"string","internalType":"string"}],"stateMutability":"view"},{"type":"function","name":"winner","inputs":[],"outputs":[{"name":"","type":"address","internalType":"address"}],"stateMutability":"view"}],"bytecode":{"object":"0x6080604052600160045560016005555f60085f6101000a81548160ff0219169083151502179055503480156031575f5ffd5b503360025f6101000a81548173ffffffffffffffffffffffffffffffffffffffff021916908373ffffffffffffffffffffffffffffffffffffffff160217905550612abb8061007f5f395ff3fe608060405234801561000f575f5ffd5b50600436106100f3575f3560e01c806363a599a411610095578063da58c7d911610064578063da58c7d914610261578063dfbf53ae14610297578063e179d4ae146102b5578063f3378a65146102bf576100f3565b806363a599a4146101ed578063845d26e0146101f7578063ad7aaa7614610227578063cdf05ab514610245576100f3565b80633477ee2e116100d15780633477ee2e1461014f5780633eb76b9c14610185578063582891b0146101a15780635d74b023146101d1576100f3565b8063043d6141146100f757806319f41a40146101135780631bdbb2ab14610131575b5f5ffd5b610111600480360381019061010c9190611aa0565b6102dd565b005b61011b610560565b6040516101289190611bcb565b60405180910390f35b610139610657565b6040516101469190611bfa565b60405180910390f35b61016960048036038101906101649190611c13565b61067c565b60405161017c9796959493929190611c4d565b60405180910390f35b61019f600480360381019061019a9190611c13565b61086a565b005b6101bb60048036038101906101b69190611ccf565b610a4c565b6040516101c89190611d14565b60405180910390f35b6101eb60048036038101906101e69190611d2d565b610ae4565b005b6101f5610c9d565b005b610211600480360381019061020c9190611ccf565b610d48565b60405161021e9190611d14565b60405180910390f35b61022f610ddf565b60405161023c9190611f85565b60405180910390f35b61025f600480360381019061025a9190611c13565b61105e565b005b61027b60048036038101906102769190611c13565b611125565b60405161028e9796959493929190611fa5565b60405180910390f35b61029f61129b565b6040516102ac9190611bfa565b60405180910390f35b6102bd6112c0565b005b6102c7611489565b6040516102d49190612182565b60405180910390f35b60025f9054906101000a900473ffffffffffffffffffffffffffffffffffffffff1673ffffffffffffffffffffffffffffffffffffffff163373ffffffffffffffffffffffffffffffffffffffff161461036c576040517f08c379a000000000000000000000000000000000000000000000000000000000815260040161036390612212565b60405180910390fd5b60128410156103b0576040517f08c379a00000000000000000000000000000000000000000000000000000000081526004016103a7906122a0565b60405180910390fd5b6103b981610d48565b6103f8576040517f08c379a00000000000000000000000000000000000000000000000000000000081526004016103ef90612308565b60405180910390fd5b6003600454111561043e576040517f08c379a000000000000000000000000000000000000000000000000000000000815260040161043590612396565b60405180910390fd5b6040518060e0016040528086815260200185815260200184815260200183815260200160045481526020018273ffffffffffffffffffffffffffffffffffffffff1681526020015f8152505f5f60045481526020019081526020015f205f820151815f0190816104ae91906125b1565b506020820151816001015560408201518160020190816104ce91906125b1565b5060608201518160030190816104e491906125b1565b506080820151816004015560a0820151816005015f6101000a81548173ffffffffffffffffffffffffffffffffffffffff021916908373ffffffffffffffffffffffffffffffffffffffff16021790555060c0820151816006015590505060045f815480929190610554906126ad565b91905055505050505050565b60605f600654036105a8576040518060400160405280601b81526020017f566f74696e6720686173206e6f742073746172746564207965742e00000000008152509050610654565b60065442101580156105bc57506007544211155b80156105d957505f151560085f9054906101000a900460ff161515145b1561061b576040518060400160405280601981526020017f566f74696e672069732063757272656e746c79206f70656e2e000000000000008152509050610654565b6040518060400160405280601181526020017f566f74696e672068617320656e6465642e00000000000000000000000000000081525090505b90565b60025f9054906101000a900473ffffffffffffffffffffffffffffffffffffffff1681565b5f602052805f5260405f205f91509050805f01805461069a906123e1565b80601f01602080910402602001604051908101604052809291908181526020018280546106c6906123e1565b80156107115780601f106106e857610100808354040283529160200191610711565b820191905f5260205f20905b8154815290600101906020018083116106f457829003601f168201915b50505050509080600101549080600201805461072c906123e1565b80601f0160208091040260200160405190810160405280929190818152602001828054610758906123e1565b80156107a35780601f1061077a576101008083540402835291602001916107a3565b820191905f5260205f20905b81548152906001019060200180831161078657829003601f168201915b5050505050908060030180546107b8906123e1565b80601f01602080910402602001604051908101604052809291908181526020018280546107e4906123e1565b801561082f5780601f106108065761010080835404028352916020019161082f565b820191905f5260205f20905b81548152906001019060200180831161081257829003601f168201915b505050505090806004015490806005015f9054906101000a900473ffffffffffffffffffffffffffffffffffffffff16908060060154905087565b600654421015801561087e57506007544211155b801561089d57506001151560085f9054906101000a900460ff16151514155b6108dc576040517f08c379a00000000000000000000000000000000000000000000000000000000081526004016108d39061273e565b60405180910390fd5b5f811180156108ec575060045481105b61092b576040517f08c379a0000000000000000000000000000000000000000000000000000000008152600401610922906127a6565b60405180910390fd5b5f6109353361177c565b90505f8103610979576040517f08c379a00000000000000000000000000000000000000000000000000000000081526004016109709061280e565b60405180910390fd5b60015f8281526020019081526020015f2060040160149054906101000a900460ff16156109db576040517f08c379a00000000000000000000000000000000000000000000000000000000081526004016109d290612876565b60405180910390fd5b6001805f8381526020019081526020015f2060040160146101000a81548160ff0219169083151502179055508160015f8381526020019081526020015f20600501819055505f5f8381526020019081526020015f206006015f815480929190610a43906126ad565b91905055505050565b5f5f600190505b600554811015610ad9578273ffffffffffffffffffffffffffffffffffffffff1660015f8381526020019081526020015f206004015f9054906101000a900473ffffffffffffffffffffffffffffffffffffffff1673ffffffffffffffffffffffffffffffffffffffff1603610acc575f915050610adf565b8080600101915050610a53565b50600190505b919050565b6012821015610b28576040517f08c379a0000000000000000000000000000000000000000000000000000000008152600401610b1f90612904565b60405180910390fd5b610b3133610a4c565b610b70576040517f08c379a0000000000000000000000000000000000000000000000000000000008152600401610b679061296c565b60405180910390fd5b6040518060e0016040528084815260200183815260200182815260200160055481526020013373ffffffffffffffffffffffffffffffffffffffff1681526020015f151581526020015f81525060015f60055481526020019081526020015f205f820151815f019081610be391906125b1565b50602082015181600101556040820151816002019081610c0391906125b1565b50606082015181600301556080820151816004015f6101000a81548173ffffffffffffffffffffffffffffffffffffffff021916908373ffffffffffffffffffffffffffffffffffffffff16021790555060a08201518160040160146101000a81548160ff02191690831515021790555060c0820151816005015590505060055f815480929190610c93906126ad565b9190505550505050565b60025f9054906101000a900473ffffffffffffffffffffffffffffffffffffffff1673ffffffffffffffffffffffffffffffffffffffff163373ffffffffffffffffffffffffffffffffffffffff1614610d2c576040517f08c379a0000000000000000000000000000000000000000000000000000000008152600401610d2390612212565b60405180910390fd5b600160085f6101000a81548160ff021916908315150217905550565b5f5f600190505b600454811015610dd4578273ffffffffffffffffffffffffffffffffffffffff165f5f8381526020019081526020015f206005015f9054906101000a900473ffffffffffffffffffffffffffffffffffffffff1673ffffffffffffffffffffffffffffffffffffffff1603610dc7575f915050610dda565b8080600101915050610d4f565b50600190505b919050565b60605f6001600554610df1919061298a565b67ffffffffffffffff811115610e0a57610e096118ef565b5b604051908082528060200260200182016040528015610e4357816020015b610e30611827565b815260200190600190039081610e285790505b5090505f600190505b6005548110156110565760015f8281526020019081526020015f206040518060e00160405290815f82018054610e81906123e1565b80601f0160208091040260200160405190810160405280929190818152602001828054610ead906123e1565b8015610ef85780601f10610ecf57610100808354040283529160200191610ef8565b820191905f5260205f20905b815481529060010190602001808311610edb57829003601f168201915b5050505050815260200160018201548152602001600282018054610f1b906123e1565b80601f0160208091040260200160405190810160405280929190818152602001828054610f47906123e1565b8015610f925780601f10610f6957610100808354040283529160200191610f92565b820191905f5260205f20905b815481529060010190602001808311610f7557829003601f168201915b5050505050815260200160038201548152602001600482015f9054906101000a900473ffffffffffffffffffffffffffffffffffffffff1673ffffffffffffffffffffffffffffffffffffffff1673ffffffffffffffffffffffffffffffffffffffff1681526020016004820160149054906101000a900460ff161515151581526020016005820154815250508260018361102d919061298a565b8151811061103e5761103d6129bd565b5b60200260200101819052508080600101915050610e4c565b508091505090565b60025f9054906101000a900473ffffffffffffffffffffffffffffffffffffffff1673ffffffffffffffffffffffffffffffffffffffff163373ffffffffffffffffffffffffffffffffffffffff16146110ed576040517f08c379a00000000000000000000000000000000000000000000000000000000081526004016110e490612212565b60405180910390fd5b8060068190555062093a808161110391906129ea565b6007819055505f60085f6101000a81548160ff02191690831515021790555050565b6001602052805f5260405f205f91509050805f018054611144906123e1565b80601f0160208091040260200160405190810160405280929190818152602001828054611170906123e1565b80156111bb5780601f10611192576101008083540402835291602001916111bb565b820191905f5260205f20905b81548152906001019060200180831161119e57829003601f168201915b5050505050908060010154908060020180546111d6906123e1565b80601f0160208091040260200160405190810160405280929190818152602001828054611202906123e1565b801561124d5780601f106112245761010080835404028352916020019161124d565b820191905f5260205f20905b81548152906001019060200180831161123057829003601f168201915b505050505090806003015490806004015f9054906101000a900473ffffffffffffffffffffffffffffffffffffffff16908060040160149054906101000a900460ff16908060050154905087565b60035f9054906101000a900473ffffffffffffffffffffffffffffffffffffffff1681565b60025f9054906101000a900473ffffffffffffffffffffffffffffffffffffffff1673ffffffffffffffffffffffffffffffffffffffff163373ffffffffffffffffffffffffffffffffffffffff161461134f576040517f08c379a000000000000000000000000000000000000000000000000000000000815260040161134690612212565b60405180910390fd5b60075442118061137157506001151560085f9054906101000a900460ff161515145b6113b0576040517f08c379a00000000000000000000000000000000000000000000000000000000081526004016113a790612a67565b60405180910390fd5b5f5f90505f5f90505f600190505b60045481101561140a57825f5f8381526020019081526020015f206006015411156113fd575f5f8281526020019081526020015f206006015492508091505b80806001019150506113be565b505f8114611485575f5f8281526020019081526020015f206005015f9054906101000a900473ffffffffffffffffffffffffffffffffffffffff1660035f6101000a81548173ffffffffffffffffffffffffffffffffffffffff021916908373ffffffffffffffffffffffffffffffffffffffff1602179055505b5050565b60605f600160045461149b919061298a565b67ffffffffffffffff8111156114b4576114b36118ef565b5b6040519080825280602002602001820160405280156114ed57816020015b6114da611877565b8152602001906001900390816114d25790505b5090505f600190505b600454811015611774575f5f8281526020019081526020015f206040518060e00160405290815f8201805461152a906123e1565b80601f0160208091040260200160405190810160405280929190818152602001828054611556906123e1565b80156115a15780601f10611578576101008083540402835291602001916115a1565b820191905f5260205f20905b81548152906001019060200180831161158457829003601f168201915b50505050508152602001600182015481526020016002820180546115c4906123e1565b80601f01602080910402602001604051908101604052809291908181526020018280546115f0906123e1565b801561163b5780601f106116125761010080835404028352916020019161163b565b820191905f5260205f20905b81548152906001019060200180831161161e57829003601f168201915b50505050508152602001600382018054611654906123e1565b80601f0160208091040260200160405190810160405280929190818152602001828054611680906123e1565b80156116cb5780601f106116a2576101008083540402835291602001916116cb565b820191905f5260205f20905b8154815290600101906020018083116116ae57829003601f168201915b5050505050815260200160048201548152602001600582015f9054906101000a900473ffffffffffffffffffffffffffffffffffffffff1673ffffffffffffffffffffffffffffffffffffffff1673ffffffffffffffffffffffffffffffffffffffff1681526020016006820154815250508260018361174b919061298a565b8151811061175c5761175b6129bd565b5b602002602001018190525080806001019150506114f6565b508091505090565b5f5f600190505b60055481101561181d578273ffffffffffffffffffffffffffffffffffffffff1660015f8381526020019081526020015f206004015f9054906101000a900473ffffffffffffffffffffffffffffffffffffffff1673ffffffffffffffffffffffffffffffffffffffff16036118105760015f8281526020019081526020015f2060030154915050611822565b8080600101915050611783565b505f90505b919050565b6040518060e00160405280606081526020015f8152602001606081526020015f81526020015f73ffffffffffffffffffffffffffffffffffffffff1681526020015f151581526020015f81525090565b6040518060e00160405280606081526020015f815260200160608152602001606081526020015f81526020015f73ffffffffffffffffffffffffffffffffffffffff1681526020015f81525090565b5f604051905090565b5f5ffd5b5f5ffd5b5f5ffd5b5f5ffd5b5f601f19601f8301169050919050565b7f4e487b71000000000000000000000000000000000000000000000000000000005f52604160045260245ffd5b611925826118df565b810181811067ffffffffffffffff82111715611944576119436118ef565b5b80604052505050565b5f6119566118c6565b9050611962828261191c565b919050565b5f67ffffffffffffffff821115611981576119806118ef565b5b61198a826118df565b9050602081019050919050565b828183375f83830152505050565b5f6119b76119b284611967565b61194d565b9050828152602081018484840111156119d3576119d26118db565b5b6119de848285611997565b509392505050565b5f82601f8301126119fa576119f96118d7565b5b8135611a0a8482602086016119a5565b91505092915050565b5f819050919050565b611a2581611a13565b8114611a2f575f5ffd5b50565b5f81359050611a4081611a1c565b92915050565b5f73ffffffffffffffffffffffffffffffffffffffff82169050919050565b5f611a6f82611a46565b9050919050565b611a7f81611a65565b8114611a89575f5ffd5b50565b5f81359050611a9a81611a76565b92915050565b5f5f5f5f5f60a08688031215611ab957611ab86118cf565b5b5f86013567ffffffffffffffff811115611ad657611ad56118d3565b5b611ae2888289016119e6565b9550506020611af388828901611a32565b945050604086013567ffffffffffffffff811115611b1457611b136118d3565b5b611b20888289016119e6565b935050606086013567ffffffffffffffff811115611b4157611b406118d3565b5b611b4d888289016119e6565b9250506080611b5e88828901611a8c565b9150509295509295909350565b5f81519050919050565b5f82825260208201905092915050565b8281835e5f83830152505050565b5f611b9d82611b6b565b611ba78185611b75565b9350611bb7818560208601611b85565b611bc0816118df565b840191505092915050565b5f6020820190508181035f830152611be38184611b93565b905092915050565b611bf481611a65565b82525050565b5f602082019050611c0d5f830184611beb565b92915050565b5f60208284031215611c2857611c276118cf565b5b5f611c3584828501611a32565b91505092915050565b611c4781611a13565b82525050565b5f60e0820190508181035f830152611c65818a611b93565b9050611c746020830189611c3e565b8181036040830152611c868188611b93565b90508181036060830152611c9a8187611b93565b9050611ca96080830186611c3e565b611cb660a0830185611beb565b611cc360c0830184611c3e565b98975050505050505050565b5f60208284031215611ce457611ce36118cf565b5b5f611cf184828501611a8c565b91505092915050565b5f8115159050919050565b611d0e81611cfa565b82525050565b5f602082019050611d275f830184611d05565b92915050565b5f5f5f60608486031215611d4457611d436118cf565b5b5f84013567ffffffffffffffff811115611d6157611d606118d3565b5b611d6d868287016119e6565b9350506020611d7e86828701611a32565b925050604084013567ffffffffffffffff811115611d9f57611d9e6118d3565b5b611dab868287016119e6565b9150509250925092565b5f81519050919050565b5f82825260208201905092915050565b5f819050602082019050919050565b5f82825260208201905092915050565b5f611df882611b6b565b611e028185611dde565b9350611e12818560208601611b85565b611e1b816118df565b840191505092915050565b611e2f81611a13565b82525050565b611e3e81611a65565b82525050565b611e4d81611cfa565b82525050565b5f60e083015f8301518482035f860152611e6d8282611dee565b9150506020830151611e826020860182611e26565b5060408301518482036040860152611e9a8282611dee565b9150506060830151611eaf6060860182611e26565b506080830151611ec26080860182611e35565b5060a0830151611ed560a0860182611e44565b5060c0830151611ee860c0860182611e26565b508091505092915050565b5f611efe8383611e53565b905092915050565b5f602082019050919050565b5f611f1c82611db5565b611f268185611dbf565b935083602082028501611f3885611dcf565b805f5b85811015611f735784840389528151611f548582611ef3565b9450611f5f83611f06565b925060208a01995050600181019050611f3b565b50829750879550505050505092915050565b5f6020820190508181035f830152611f9d8184611f12565b905092915050565b5f60e0820190508181035f830152611fbd818a611b93565b9050611fcc6020830189611c3e565b8181036040830152611fde8188611b93565b9050611fed6060830187611c3e565b611ffa6080830186611beb565b61200760a0830185611d05565b61201460c0830184611c3e565b98975050505050505050565b5f81519050919050565b5f82825260208201905092915050565b5f819050602082019050919050565b5f60e083015f8301518482035f8601526120638282611dee565b91505060208301516120786020860182611e26565b50604083015184820360408601526120908282611dee565b915050606083015184820360608601526120aa8282611dee565b91505060808301516120bf6080860182611e26565b5060a08301516120d260a0860182611e35565b5060c08301516120e560c0860182611e26565b508091505092915050565b5f6120fb8383612049565b905092915050565b5f602082019050919050565b5f61211982612020565b612123818561202a565b9350836020820285016121358561203a565b805f5b85811015612170578484038952815161215185826120f0565b945061215c83612103565b925060208a01995050600181019050612138565b50829750879550505050505092915050565b5f6020820190508181035f83015261219a818461210f565b905092915050565b7f4f6e6c792074686520656c656374696f6e20636f6d6d697373696f6e657220635f8201527f616e2063616c6c20746869732066756e6374696f6e2e00000000000000000000602082015250565b5f6121fc603683611b75565b9150612207826121a2565b604082019050919050565b5f6020820190508181035f830152612229816121f0565b9050919050565b7f43616e646964617465206d757374206265206174206c656173742031382079655f8201527f617273206f6c642e000000000000000000000000000000000000000000000000602082015250565b5f61228a602883611b75565b915061229582612230565b604082019050919050565b5f6020820190508181035f8301526122b78161227e565b9050919050565b7f43616e64696461746520616c726561647920726567697374657265642e0000005f82015250565b5f6122f2601d83611b75565b91506122fd826122be565b602082019050919050565b5f6020820190508181035f83015261231f816122e6565b9050919050565b7f4d6178696d756d206e756d626572206f662063616e64696461746573207265615f8201527f636865642e000000000000000000000000000000000000000000000000000000602082015250565b5f612380602583611b75565b915061238b82612326565b604082019050919050565b5f6020820190508181035f8301526123ad81612374565b9050919050565b7f4e487b71000000000000000000000000000000000000000000000000000000005f52602260045260245ffd5b5f60028204905060018216806123f857607f821691505b60208210810361240b5761240a6123b4565b5b50919050565b5f819050815f5260205f209050919050565b5f6020601f8301049050919050565b5f82821b905092915050565b5f6008830261246d7fffffffffffffffffffffffffffffffffffffffffffffffffffffffffffffffff82612432565b6124778683612432565b95508019841693508086168417925050509392505050565b5f819050919050565b5f6124b26124ad6124a884611a13565b61248f565b611a13565b9050919050565b5f819050919050565b6124cb83612498565b6124df6124d7826124b9565b84845461243e565b825550505050565b5f5f905090565b6124f66124e7565b6125018184846124c2565b505050565b5b81811015612524576125195f826124ee565b600181019050612507565b5050565b601f8211156125695761253a81612411565b61254384612423565b81016020851015612552578190505b61256661255e85612423565b830182612506565b50505b505050565b5f82821c905092915050565b5f6125895f198460080261256e565b1980831691505092915050565b5f6125a1838361257a565b9150826002028217905092915050565b6125ba82611b6b565b67ffffffffffffffff8111156125d3576125d26118ef565b5b6125dd82546123e1565b6125e8828285612528565b5f60209050601f831160018114612619575f8415612607578287015190505b6126118582612596565b865550612678565b601f19841661262786612411565b5f5b8281101561264e57848901518255600182019150602085019450602081019050612629565b8683101561266b5784890151612667601f89168261257a565b8355505b6001600288020188555050505b505050505050565b7f4e487b71000000000000000000000000000000000000000000000000000000005f52601160045260245ffd5b5f6126b782611a13565b91507fffffffffffffffffffffffffffffffffffffffffffffffffffffffffffffffff82036126e9576126e8612680565b5b600182019050919050565b7f566f74696e67206973206e6f74206f70656e2e000000000000000000000000005f82015250565b5f612728601383611b75565b9150612733826126f4565b602082019050919050565b5f6020820190508181035f8301526127558161271c565b9050919050565b7f496e76616c69642063616e6469646174652049442e00000000000000000000005f82015250565b5f612790601583611b75565b915061279b8261275c565b602082019050919050565b5f6020820190508181035f8301526127bd81612784565b9050919050565b7f566f746572206973206e6f7420726567697374657265642e00000000000000005f82015250565b5f6127f8601883611b75565b9150612803826127c4565b602082019050919050565b5f6020820190508181035f830152612825816127ec565b9050919050565b7f566f7465722068617320616c726561647920766f7465642e00000000000000005f82015250565b5f612860601883611b75565b915061286b8261282c565b602082019050919050565b5f6020820190508181035f83015261288d81612854565b9050919050565b7f566f746572206d757374206265206174206c65617374203138207965617273205f8201527f6f6c642e00000000000000000000000000000000000000000000000000000000602082015250565b5f6128ee602483611b75565b91506128f982612894565b604082019050919050565b5f6020820190508181035f83015261291b816128e2565b9050919050565b7f566f74657220616c726561647920726567697374657265642e000000000000005f82015250565b5f612956601983611b75565b915061296182612922565b602082019050919050565b5f6020820190508181035f8301526129838161294a565b9050919050565b5f61299482611a13565b915061299f83611a13565b92508282039050818111156129b7576129b6612680565b5b92915050565b7f4e487b71000000000000000000000000000000000000000000000000000000005f52603260045260245ffd5b5f6129f482611a13565b91506129ff83611a13565b9250828201905080821115612a1757612a16612680565b5b92915050565b7f566f74696e67206973207374696c6c206f70656e2e00000000000000000000005f82015250565b5f612a51601583611b75565b9150612a5c82612a1d565b602082019050919050565b5f6020820190508181035f830152612a7e81612a45565b905091905056fea264697066735822122092707de095ca3030ed224dcbe334e0195ba34ecf590fa5368075ae3d8137a4f164736f6c634300081e0033","linkReferences":{}},"methodIdentifiers":{"CandidateList()":"f3378a65","DetermineWinner()":"e179d4ae","VoterList()":"ad7aaa76","candidateRegistration(string,uint256,string,string,address)":"043d6141","candidateVerification(address)":"845d26e0","candidates(uint256)":"3477ee2e","castVote(uint256)":"3eb76b9c","electionCommissioner()":"1bdbb2ab","emergencyStop()":"63a599a4","voteTime(uint256)":"cdf05ab5","voterRegistration(string,uint256,string)":"5d74b023","voterVerification(address)":"582891b0","voters(uint256)":"da58c7d9","votingStatus()":"19f41a40","winner()":"dfbf53ae"},"id":16}